:100000000C9464000C94D2010C9481000C94810037
:100010000C9481000C9481000C9481000C9481005C
:100020000C9481000C9481000C9481000C9481004C
:100030000C9481000C9481000C9481000C9481003C
:100040000C9481000C9481000C9481000C9481002C
:100050000C9481000403090412036F006200640021
:10006000650076002E006100740014034C0045000A
:100070004400430074006C00480049004400120131
:10008000100100000008C016DF0500010102000198
:10009000090222000101008014090400000103008C
:1000A0000000092101010001221600070581030853
:1000B00000640600FF0901A101150026FF00750874
:1000C00095010900B20201C011241FBECFE5D4E0A2
:1000D000DEBFCDBF10E0A0E6B0E0EAEDF6E002C082
:1000E00005900D92A236B107D9F710E0A2E6B0E074
:1000F00001C01D92AA39B107E1F70E944E030C948A
:100100006B030C94000085B7836085BF8BB7806458
:100110008BBF8BE4809370008AE580936F00089515
:100120001F93CF93DF9390918000935097FDA2C0CF
:1001300020917D0080917C008D3209F099C098302B
:1001400009F096C0CCE0D0E0C21BD109CC57DF4FFC
:1001500083EC809364008AE58093600010926200D3
:100160008881807629F0CE010E942E03282F77C047
:100170009A8110926D008981882321F410926E007B
:1001800022E067C0853019F49093810061C0863009
:1001900009F04AC08B81813019F48EE790E01BC0D2
:1001A000823041F480E990E090937F0080937E005C
:1001B00022E236C08330F9F48A81882341F484E551
:1001C00090E090937F0080937E0024E029C08130EE
:1001D00041F488E590E090937F0080937E0022E1D7
:1001E0001FC08230E1F48AE690E090937F00809314
:1001F0007E0024E115C0813241F482EA90E09093C0
:100200007F0080937E0029E00BC0823241F482EBB4
:1002100090E090937F0080937E0026E101C020E073
:1002200080E4809362001BC0883021F421E083E8E1
:1002300090E011C0893019F49093830009C08A308E
:1002400011F421E006C08B3019F48BE48093700028
:1002500020E08DE690E090937F0080937E008F8178
:10026000882321F48E81821708F4282F20936100BF
:10027000109280008091600084FF4AC080916100EC
:100280008F3F09F445C0182F893008F018E0811B12
:10029000809361008091640098E8892780936400CE
:1002A000112341F120917E0030917F008091620006
:1002B00086FF0DC0A5E6B0E080E090E0F901E80F10
:1002C000F91FE491ED9301961817C1F708C0912F1B
:1002D000D901E5E6F0E08D9181939150E1F711505D
:1002E000812F90E01F5F0196820F931F90937F00F4
:1002F00080937E0085E690E0612F0E94CE01612F01
:100300006C5F6C3019F08FEF809361006093600038
:100310009AE080B3847131F49150D9F71092810042
:1003200010927B00DF91CF911F9108951F93DC0104
:10033000162F80916F0084FF07C08091700098E8AD
:1003400089278093700003C08AE580936F00912F06
:10035000E1E7F0E08D91819391501916DCF381E78C
:1003600090E0612F0E94CE011C5F10936F001F91DF
:100370000895A82FB92F80E090E041E050EA609501
:100380006F5F58F42D9138EF82279795879510F07D
:10039000842795273F5FC8F3F3CF0895EADF8D9355
:1003A0009D930895CF93CFB7CF93849BFECF849B2B
:1003B00009C0849B07C0849B05C0849B03C0849BA9
:1003C00001C0A3C0DF93C0917D00DD27CC57DF4F74
:1003D000849B02C0DF91EBCF2F930F931F9300B349
:1003E0002FEF04FB20F94F933F9310B34FEF0127FA
:1003F00004FB21F93BE031C04E7F012F10B3216097
:1004000028C0102F4D7F2260000000B329C04B7F11
:100410002460012F000010B32BC010B3477F286069
:100420002AC04F7E00B320612CC04F7D10B32062E4
:100430002FC04F7B00B3206432C0422700B34993E2
:100440004FEF0000102714FB20F910B31471C9F10D
:10045000297F91F2012704FB21F900B3237F89F260
:10046000315058F1102714FB22F910B3277E79F28E
:10047000012704FB23F92F7C81F200B3102714FB22
:1004800024F92F7971F200C010B3012704FB25F97C
:100490002F7359F200C000B3102714FB26F9223045
:1004A00040F200C010B3012704FB27F9243028F6DE
:1004B0004F77206810B30000F9CF10E41ABF00276F
:1004C00019C03B503195C31BD04010E41ABF0881BE
:1004D000033CF9F00B34E9F020917B001981110FF6
:1004E0001213EDCF4A81441F093641F10D3211F04C
:1004F000013E29F7009382003F914F911F910F9188
:100500002F91DF91CAB7C6FD50CFCF91CFBFCF910A
:10051000189500918200002379F310918000112337
:10052000A1F53430A2F13093800000937C0010914B
:100530007D003BE0311B30937D0029C0009180009D
:1005400001301CF50AE54F7049F43091600034FD2C
:1005500020C000936000C4E6D0E01FC030916F005F
:1005600034FD17C000936F00C0E7D0E016C0052728
:1005700010E002BB1FC0052722C0052727C00527A2
:100580002CC0052710E002BB33C04AE503C042ED92
:1005900001C0432FC4E1D0E032E011B31461949A5A
:1005A00002B311BB5F9354E120E820FF052702BB93
:1005B000279517951C3FD8F620FF0527279502BBE6
:1005C00017951C3FC0F620FF05272795179502BBFE
:1005D0001C3F98F620FF0527279517951C3F02BB67
:1005E00070F600C0499120FF052702BB279517959B
:1005F0001C3F38F620FF0527279502BB17951C3FA7
:1006000038F520FF05272795179502BB1C3F10F5ED
:1006100020FF0527279517951C3F02BBE8F4242FE0
:100620003A9519F60B7E5F9102BB10918100110F74
:10063000C651D04011F010937B0010E41ABF006146
:1006400011B31B7E402F4B7E02BB11BB42BB54CF6C
:100650000527D3CF0527D8CF0527DDCFFC01808123
:1006600080768034C9F48181813041F4828180FFB9
:1006700002C0C09A01C0C09880E00895823061F441
:1006800088B381708093630083E690E090937F004D
:1006900080937E0081E0089580E008952EE088E157
:1006A00090E00FB6F894A89581BD0FBE21BD0E94C1
:1006B00083008C9A20E048EB5BE004C0A895CA0157
:1006C0000197F1F72150D1F78C98B89A7894A895B2
:0A06D0000E949000FCCFF894FFCFC9
:0206DA005AFFC5
:00000001FF
