:1000000048C0D0C161C060C05FC05EC05DC05CC0A0
:100010005BC05AC059C058C057C056C055C009022D
:100020002200010100801909040000010300000002
:10003000092101010001221600070581030800645F
:100040001201100100000008C016DF0500010102C6
:10005000000114034C0045004400430074006C0090
:1000600048004900440012036F006200640065000C
:1000700076002E0061007400040309040600FF09E5
:1000800001A101150026FF00750895010900B202C3
:1000900001C011241FBECFE5D1E0DEBFCDBF10E00F
:1000A000A0E6B0E0E6E9F7E002C005900D92A236C6
:1000B000B107D9F720E0A2E6B0E001C01D92AB394C
:1000C000B207E1F730D365C39BCFCF93C62F209102
:1000D000700024FF07C02091710038E82327209387
:1000E000710003C02AE520937000DC01E2E7F0E034
:1000F0009C2F9E0F8D918193892F8E1B1816D4F300
:100100006C2F82E790E037D1CC5FC0937000CF9125
:100110000895CF93DF9380918100835087FDA3C022
:1001200090917E0020917D002D3209F09AC0883098
:1001300009F097C0CCE0D0E0C91BD109CB57DF4F05
:1001400083EC809365008AE58093600010926200E2
:100150008881807619F0CE0182D27AC09A8110927D
:100160006E008981811106C010926F002EE630E08A
:1001700082E06AC0853019F49093820062C08630B4
:1001800009F049C08B81813019F480E490E01AC0F5
:10019000823041F48EE190E09093800080937F0064
:1001A00082E235C08330F1F4911108C088E790E015
:1001B0009093800080937F0084E029C0913041F4C7
:1001C00086E690E09093800080937F0082E11FC0DC
:1001D0009230E1F482E590E09093800080937F007C
:1001E00084E115C0813241F480E390E09093800077
:1001F00080937F0089E00BC0823241F48CE790E06D
:100200009093800080937F0086E101C080E090E4BD
:10021000909362001DC0883069F0893019F4909382
:1002200084000FC08A3049F08B3059F48BE48093FE
:10023000710007C024E830E002C02EE630E081E023
:1002400003C02EE630E080E03093800020937F00F2
:100250009F81911104C09E81981708F4892F809383
:100260006100109281008091600084FF46C08091FF
:1002700061008F3F09F441C0C82F893008F0C8E001
:100280008C1B809361008091650098E8892780939A
:100290006500CC2331F120917F0030918000809166
:1002A000620086FF0BC0F901A6E6B0E08C2F8A0F32
:1002B00094919D9331968A13FBCF09C0D901E6E64C
:1002C000F0E08C2F8E0F9D9191938E13FCCF8C2F8D
:1002D000815090E00196820F931F9093800080934D
:1002E0007F006C2F86E690E046D0CC5FCC3019F0D2
:1002F0008FEF80936100C09360008AE096B39670A0
:1003000019F48150D9F70DC0C1E08111C0E080918E
:1003100063008C1759F0C11101C0C2D1C0936300B2
:1003200005C01092820010927C00EECFDF91CF9139
:10033000089585B7836085BF8BB780648BBF8BE4DE
:10034000809371008AE5809370000895A82FB92FDB
:1003500080E090E041E050EA60956F5F58F42D91A5
:1003600038EF82279795879510F0842795273F5F70
:10037000C8F3F3CF0895EADF8D939D930895A6E027
:1003800088279927AA9569F00197E1F3B199FCCFE5
:10039000B19BFECF81E09927A6B3019611F0A6701C
:1003A000D9F70895CF93CFB7CF93B19BFECFB19B31
:1003B0000BC0B19B09C0B19B07C0B19B05C0B19BED
:1003C00003C0B19B01C0D5C00F92DF93C0917E00E6
:1003D000DD27CB57DF4F012EB19B03C0DF910F907C
:1003E000E6CF2F930F931F934F932FEF4F6F06B3CB
:1003F00001FB20F95F933F9350E03BE065C016B3EB
:100400000126502951FDC89556B3012701FB25F956
:100410002F7306B3B1F05027102711FB26F906B24F
:100420002230F0F000C016B3012701FB27F90126A6
:10043000502906B22430E8F54F77206816B3000043
:10044000F6CF50274F7D206206B2102F000000C06B
:1004500006B300265029102711FB26F906B2E2CF79
:100460004F7B06B3206400C0DACF012650291670F6
:1004700006B269F14E7F2160012F16B328C0002615
:1004800050294D7F06B22260102F29C00126502925
:100490004B7F06B22460012F2DC016B301265029D0
:1004A000477F2860000006B22EC04F7E06B3206151
:1004B00030C0422706B3499300265029102706B2C0
:1004C0004FEF11FB20F9297F16B379F2167059F11D
:1004D0000126502906B2012701FB21F9237F06B32B
:1004E00071F2002650293150D0F006B2102711FBCE
:1004F00022F9277E16B351F201265029012701FB6C
:1005000006B223F92F7C49F2000006B3102711FB35
:1005100024F90026502906B22F7939F270CF10E461
:100520001ABF002719C03B503195C31BD04010E4BF
:100530001ABF0881033C09F10B34F9F020917C00CB
:100540001981110F1213EDCF4A81441F093651F161
:100550000D3211F0013E29F7009383003F915F9126
:100560004F911F910F912F91DF910F90CAB7C6FD48
:100570001CCFCF91CFBFCF9118950091830000235E
:1005800069F310918100112379F534307AF13093B9
:10059000810000937D0010917E003BE0311B309381
:1005A0007E0024C0009181000130F4F40AE54F7010
:1005B00049F43091600034FD1AC000936000C5E634
:1005C000D0E019C03091700034FD11C0009370006C
:1005D000C1E7D0E010C0052710E000C021C005270A
:1005E00010E0C89508BB14C03AE501C032ED032EF7
:1005F000C0E0D0E032E017B31660C19A08B317BB71
:1006000056E020E84FEF20FF052708BB27951795F8
:100610001C3F28F700004552B0F720FF052727951B
:1006200008BB17951C3FB8F629913A9561F7097FE9
:1006300010918200110F08BBC250D04011F01093EE
:100640007C0010E41ABF026017B3197F402F497F66
:1006500054E05A95F1F708BB17BB48BB7FCFFC01AC
:10066000808180768034D1F48181813039F4828137
:1006700080FF02C0C39A12C0C39810C0823071F4C8
:1006800088B383FB882780F98093640084E690E038
:100690009093800080937F0081E0089580E008952A
:1006A000DF92EF92FF920F931F93CF93DF9308E0B7
:1006B00010E0F12C80E8E82EDE2CDF0CD1BE5FDEEE
:1006C000EC01C43389E0D8070CF4FD2CE69401500A
:1006D000110991F78F2D815081BF0F2D10E00F5F11
:1006E0001F4F10C04CDE8453994097FF03C0919573
:1006F000819591098C179D0714F4F1B6EC0181B72F
:100700008F5F81BF81B790E0081719075CF7F1BED2
:1007100061B780E090E0DF91CF911F910F91FF9042
:10072000EF90DF9028C080E090E01DD08F3F09F06F
:1007300081BFFFDD2EE088E190E00FB6F894A89528
:1007400081BD0FBE21BDB99A2FE28BE19FE0215000
:1007500080409040E1F700C00000B998BB9A7894BF
:10076000A895D7DCFDCFE199FECF1FBA8EBBE09AEA
:1007700099278DB30895262FE199FECF1CBA1FBA91
:100780008EBB2DBB0FB6F894E29AE19A0FBE01968C
:060790000895F894FFCF6C
:020796005AFF08
:00000001FF
