:1000000048C0D0C161C060C05FC05EC05DC05CC0A0
:100010005BC05AC059C058C057C056C055C009022D
:100020002200010100801909040000010300000002
:10003000092101010001221600070581030800645F
:100040001201100100000008C016DF0500010102C6
:10005000000114034C0045004400430074006C0090
:1000600048004900440012036F006200640065000C
:1000700076002E0061007400040309040600FF09E5
:1000800001A101150026FF00750895010900B202C3
:1000900001C011241FBECFE5D1E0DEBFCDBF10E00F
:1000A000A0E6B0E0E8E0F7E002C005900D92A236CD
:1000B000B107D9F720E0A2E6B0E001C01D92AB394C
:1000C000B207E1F7E9D21EC39BCFCF93C62F209191
:1000D000700024FF07C02091710038E82327209387
:1000E000710003C02AE520937000DC01E2E7F0E034
:1000F0009C2F9E0F8D918193892F8E1B1816D4F300
:100100006C2F82E790E037D1CC5FC0937000CF9125
:100110000895CF93DF9380918100835087FDA3C022
:1001200090917E0020917D002D3209F09AC0883098
:1001300009F097C0CCE0D0E0C91BD109CB57DF4F05
:1001400083EC809365008AE58093600010926200E2
:100150008881807619F0CE013CD27AC09A811092C3
:100160006E008981811106C010926F002EE630E08A
:1001700082E06AC0853019F49093820062C08630B4
:1001800009F049C08B81813019F480E490E01AC0F5
:10019000823041F48EE190E09093800080937F0064
:1001A00082E235C08330F1F4911108C088E790E015
:1001B0009093800080937F0084E029C0913041F4C7
:1001C00086E690E09093800080937F0082E11FC0DC
:1001D0009230E1F482E590E09093800080937F007C
:1001E00084E115C0813241F480E390E09093800077
:1001F00080937F0089E00BC0823241F48CE790E06D
:100200009093800080937F0086E101C080E090E4BD
:10021000909362001DC0883069F0893019F4909382
:1002200084000FC08A3049F08B3059F48BE48093FE
:10023000710007C024E830E002C02EE630E081E023
:1002400003C02EE630E080E03093800020937F00F2
:100250009F81911104C09E81981708F4892F809383
:100260006100109281008091600084FF46C08091FF
:1002700061008F3F09F441C0C82F893008F0C8E001
:100280008C1B809361008091650098E8892780939A
:100290006500CC2331F120917F0030918000809166
:1002A000620086FF0BC0F901A6E6B0E08C2F8A0F32
:1002B00094919D9331968A13FBCF09C0D901E6E64C
:1002C000F0E08C2F8E0F9D9191938E13FCCF8C2F8D
:1002D000815090E00196820F931F9093800080934D
:1002E0007F006C2F86E690E046D0CC5FCC3019F0D2
:1002F0008FEF80936100C09360008AE096B39670A0
:1003000019F48150D9F70DC0C1E08111C0E080918E
:1003100063008C1759F0C11101C07BD1C0936300F9
:1003200005C01092820010927C00EECFDF91CF9139
:10033000089585B7836085BF8BB780648BBF8BE4DE
:10034000809371008AE5809370000895A82FB92FDB
:1003500080E090E041E050EA60956F5F58F42D91A5
:1003600038EF82279795879510F0842795273F5F70
:10037000C8F3F3CF0895EADF8D939D930895A6E027
:1003800088279927AA9569F00197E1F3B199FCCFE5
:10039000B19BFECF81E09927A6B3019611F0A6701C
:1003A000D9F70895CF93CFB7CF93DF93B19BFECF0B
:1003B000B19B11C0B19B0FC0B19B0DC0B19B0BC0D5
:1003C000B19B09C0B19B07C0B19B05C0B19B03C0E5
:1003D000B19B01C083C06F93C0917E00DD27CB57D6
:1003E000DF4F2F9320E400C065E0B19B03C02F9145
:1003F0006F91DECF0F931F934F9345E55F9355E5C4
:100400003F933BE014E006B306702EC06A95C9F036
:100410003150D8F106B3067001130BC0089427952C
:10042000299320E4555500F46A9569F701E066B315
:100430000BC0102F66E02695299320E4555518F33C
:10044000E2CF0FEF66B30000162F455500F0404095
:1004500066E016700030E2F221F0000006B306708C
:1004600003C006B30670A9F0011309C008942795CC
:1004700068F200C06A95A9F700E066B3E5CF102FD7
:1004800066E0269528F20000ECCF10E41ABF0027A2
:1004900019C03B503195C31BD04010E41ABF0881EE
:1004A000033C09F10B34F9F020917C001981110F04
:1004B0001213EDCF4A81441F093651F10D3211F06C
:1004C000013E29F7009383003F915F914F911F9167
:1004D0000F912F916F91CAB7C6FD68CFDF91CF9171
:1004E000CFBFCF91189500918300002369F310913D
:1004F0008100112381F5343082F130938100009323
:100500007D0010917E003BE0311B30937E0025C0C2
:10051000009181000130FCF40AE54F7049F43091FC
:10052000600034FD1BC000936000C5E6D0E01AC037
:100530003091700034FD12C000937000C1E7D0E02C
:1005400011C0052710E000C008BB19C0052710E046
:10055000221F00C01DC04AE502C032ED432FC4E196
:10056000D0E032E017B31660C19A08B317BB56E06B
:1005700020E869E420FF052708BB2795179500C0F0
:1005800000001C3FF0F66695A8F7A1F720FF0527AD
:1005900008BB2795179500001C3FC0F629913A9596
:1005A00041F7097F10918200110F08BBC651D0405E
:1005B00011F010937C0010E41ABF026017B3197F8A
:1005C000402F497F55E05A95F1F708BB17BB48BB50
:1005D0007BCFFC01808180768034C9F481818130B9
:1005E00039F4828180FF02C0C49A11C0C4980FC040
:1005F000823069F488B3829581708093640084E6C8
:1006000090E09093800080937F0081E0089580E0E7
:100610000895DF92EF92FF920F931F93CF93DF9392
:1006200008E010E0F12C80E8E82EDE2CDF0CD1BED3
:10063000A6DEEC01C7328BE0D8070CF4FD2CE69463
:100640000150110991F78F2D815081BF0F2D10E0BE
:100650000F5F1F4F10C093DE87529B4097FF03C070
:100660009195819591098C179D0714F4F1B6EC01D1
:1006700081B78F5F81BF81B790E0081719075CF7DA
:10068000F1BE61B780E090E0DF91CF911F910F91B3
:10069000FF90EF90DF9028C080E090E01DD08F3F6A
:1006A00009F081BF46DE2EE088E190E00FB6F894B5
:1006B000A89581BD0FBE21BDB99A2FE78FE492E1C5
:1006C000215080409040E1F700C00000B998BC9AEA
:1006D0007894A8951EDDFDCFE199FECF1FBA8EBBA1
:1006E000E09A99278DB30895262FE199FECF1CBA81
:1006F0001FBA8EBB2DBB0FB6F894E29AE19A0FBEDB
:0807000001960895F894FFCF63
:020708005AFF96
:00000001FF
