:100000000C9473000C94E1010C9490000C949000FB
:100010000C9490000C9490000C9490000C94900020
:100020000C9490000C9490000C9490000C94900010
:100030000C9490000C9490000C9490000C94900000
:100040000C9490000C9490000C9490000C949000F0
:100050000C9490000403090412036F006200640012
:10006000650076002E0061007400140344006100F6
:1000700074006100530074006F007200650012018B
:10008000100100000008C016DF0500010102000198
:1000900009022200010100800A0904000001030096
:1000A0000000092101010001223400070581030835
:1000B000006405010902A1010901A1000509190156
:1000C0002903150025019503750181029501750528
:1000D000810305010930093109381581257F75082B
:1000E00095038106C0C011241FBECFE5D4E0DEBF5A
:1000F000CDBF10E0A0E6B0E0E0E1F7E002C005907F
:100100000D92A436B107D9F710E0A4E6B0E001C023
:100110001D92A23AB107E1F70E9424030C948603D2
:100120000C94000085B7836085BF8BB780648BBF5C
:100130008BE4809378008AE58093770008951F937D
:10014000CF93DF9390918800935097FDA2C02091A8
:100150008500809184008D3209F099C0983009F0B3
:1001600096C0CCE0D0E0C21BD109C457DF4F83EC6E
:1001700080936C008AE5809360001092640088810F
:10018000807629F0CE010E940103282F77C09A8142
:10019000109275008981882321F41092760022E064
:1001A00067C0853019F49093890061C0863009F0EA
:1001B0004AC08B81813019F48EE790E01BC08230F9
:1001C00041F480E990E0909387008093860022E2DA
:1001D00036C08330F9F48A81882341F484E590E0C5
:1001E000909387008093860024E029C0813041F4F9
:1001F00088E590E0909387008093860022E11FC0FD
:100200008230E1F48AE690E0909387008093860044
:1002100024E115C0813241F482EA90E09093870096
:100220008093860029E00BC0823241F482EB90E09B
:10023000909387008093860024E301C020E080E44F
:10024000809364001BC0883021F421E08BE890E0AB
:1002500011C0893019F490938B0009C08A3011F4D1
:1002600021E006C08B3019F48BE48093780020E005
:1002700085E790E090938700809386008F818823A4
:1002800021F48E81821708F4282F209361001092A8
:1002900088008091600084FF4AC0809161008F3F98
:1002A00009F445C0182F893008F018E0811B8093AD
:1002B000610080916C0098E8892780936C0011237D
:1002C00041F120918600309187008091640086FF83
:1002D0000DC0ADE6B0E080E090E0F901E80FF91F55
:1002E000E491ED9301961817C1F708C0912FD90139
:1002F000EDE6F0E08D9181939150E1F71150812F5F
:1003000090E01F5F0196820F931F90938700809368
:100310008600612F8DE690E00E94DD01612F6C5F09
:100320006C3019F08FEF80936100609360009AE069
:1003300080B3847131F49150D9F7109289001092F2
:100340008300DF91CF911F9108951F93DC01162F39
:100350008091770084FF07C08091780098E8892712
:100360008093780003C08AE580937700912FE9E7B6
:10037000F0E08D91819391501916DCF3612F89E79C
:1003800090E00E94DD011C5F109377001F9108959B
:10039000A82FB92F80E090E041E050EA60956F5FB0
:1003A00058F42D9138EF82279795879510F0842780
:1003B00095273F5FC8F3F3CF0895EADF8D939D93B0
:1003C0000895CF93CFB7CF93DF93849BFECF849BC9
:1003D0000BC0849B09C0849B07C0849B05C0849B81
:1003E00003C0849B01C08BC06F93C0918500DD2743
:1003F000C457DF4F2F9365E5849B03C02F916F9106
:10040000E6CF0F931F934F9320E040E15F9300B33B
:10041000047104FB27F93F9350E03BE039C01471AD
:1004200040642F77012F53501EC0406810B31471E1
:100430002F7753501FC0406400B32F770471D1F160
:100440005350000023C0406210B32F77147191F114
:100450005350000025C004711027515012F45D5F05
:100460000000115027952C3F10B3C8F614710127D6
:10047000015027952C3FC8F64227499300B30471D9
:1004800010274F73115027952C3FA8F64695469597
:1004900010B3147179F00127015027952C3F98F67D
:1004A0006B5A60F3315000B3B0F600C010E41ABFCD
:1004B000002719C03B503195C31BD04010E41ABF30
:1004C0000881033C09F10B34F9F020918300198174
:1004D000110F1213EDCF4A81441F093651F10D322D
:1004E00011F0013E29F700938A003F915F914F91EF
:1004F0001F910F912F916F91CAB7C6FD66CFDF9103
:10050000CF91CFBFCF91189500918A00002369F356
:1005100010918800112391F5343092F130938800C6
:1005200000938400109185003BE0311B30938500DF
:1005300027C00091880001300CF50AE54F7049F49E
:100540003091600034FD1DC000936000CCE6D0E027
:100550001CC03091770034FD14C000937700C8E7C9
:10056000D0E013C0052710E000C0000002BB1AC095
:10057000052710E0221F1DC010E021C04AE502C07F
:1005800032ED432FC4E1D0E032E011B31461949A0C
:1005900002B311BB54E120E865E320FF052702BB4D
:1005A000279517951C3FF0F66695B8F7B1F720FF31
:1005B000052702BB279517951C3FD0F62795179561
:1005C00017FF052700001C3F02BBB0F629913A95A2
:1005D00019F70B7E10918900110FC651D04002BB54
:1005E00011F01093830010E41ABF006111B31B7E59
:1005F000402F4B7E54E05A95F1F702BB11BB42BB32
:1006000074CFFC01808180768032E1F48181813079
:1006100041F487E690E0909387008093860084E021
:100620000895823041F48BE690E0909387008093A8
:10063000860081E008958A3029F4838180936B00DD
:1006400080E0089580E008952EE088E190E00FB604
:10065000F894A89581BD0FBE21BD0E9492008C9A8E
:1006600020E040EA5FE004C0A895CA010197F1F7D5
:100670002150D1F78C987894A8950E949F00809182
:10068000770084FFF9CF4091650050916600141601
:1006900015061CF080EE9FEF02C080E290E0840F10
:1006A000951F36E0959587953A95E1F78093680018
:1006B000282F332727FD30958091620090916300A9
:1006C000280F391F3093630020936200121613061F
:1006D0001CF080EE9FEF02C080E290E0820F931F3B
:1006E00026E0959587952A95E1F7809369009927EB
:1006F00087FD9095481B590B509366004093650009
:1007000064E087E690E00E94A501B6CFF894FFCFA1
:040710005AFFC001CB
:00000001FF
