:100000000C9464000C94FF010C9481000C9481000A
:100010000C9481000C9481000C9481000C9481005C
:100020000C9481000C9481000C9481000C9481004C
:100030000C9481000C9481000C9481000C9481003C
:100040000C9481000C9481000C9481000C9481002C
:100050000C9481000403090412036F006200640021
:10006000650076002E0061007400140344006100F6
:1000700074006100530074006F007200650012018B
:10008000100100000008C016DF0500010102000198
:1000900009022200010100800A0904000001030096
:1000A0000000092101010001221600070581030853
:1000B00000640600FF0901A101150026FF00750874
:1000C00095800900B20201C011241FBECFE5D8E01F
:1000D000DEBFCDBF10E0A0E6B0E0E8E2F8E002C08D
:1000E00005900D92A236B107D9F710E0A2E6B0E074
:1000F00001C01D92AB39B107E1F70E9446030C9491
:1001000012040C94000085B7836085BF8BB78064B0
:100110008BBF8BE4809371008AE580937000089513
:100120001F93DC01162F8091700084FF07C080911F
:10013000710098E889278093710003C08AE5809355
:100140007000912FE2E7F0E08D91819391501916A4
:10015000DCF3612F82E790E00E94FB011C5F1093AB
:1001600070001F9108951F93CF93DF9360918100DA
:10017000635067FDBFC080917E00CCE0D0E0C81B1B
:10018000D109CB57DF4F80917D008D3209F09FC0A0
:10019000683009F0ADC083EC809365008AE58093F8
:1001A0006000109262008881807641F0CE010E944A
:1001B0003303282F8F3F09F479C07FC09A811092B2
:1001C0006E008981882321F410926F0022E067C0BD
:1001D000853019F49093820061C0863009F04AC0DE
:1001E0008B81813019F48EE790E01BC0823041F49E
:1001F00080E990E09093800080937F0022E236C0F7
:100200008330F9F48A81882341F484E590E0909367
:10021000800080937F0024E029C0813041F488E58C
:1002200090E09093800080937F0022E11FC0823095
:10023000E1F48AE690E09093800080937F0024E1CF
:1002400015C0813241F482EA90E09093800080935F
:100250007F0029E00BC0823241F482EB90E0909362
:10026000800080937F0026E101C020E080E480933D
:10027000620023C0883021F421E084E890E011C0BE
:10028000893019F49093840009C08A3011F421E078
:1002900006C08B3019F48BE48093710020E08EE669
:1002A00090E09093800080937F0007C0888187FD55
:1002B0002E8180E88093620006C08F81882319F424
:1002C0008E81821708F0822F8093610011C0809187
:1002D000620087FF0DC0CE010E9462038F3F21F4B0
:1002E0008EE18093600004C0882311F010926100B9
:1002F000109281008091600084FF5AC0809161005B
:100300008F3F09F455C0182F893008F018E0811B81
:10031000809361008091650098E88927809365004B
:10032000112399F18091620087FF09C0612F86E651
:1003300090E00E948603182F8930A0F526C02091F6
:100340007F003091800086FF0DC0A6E6B0E080E01F
:1003500090E0F901E80FF91FE491ED930196181769
:10036000C1F708C0912FD901E6E6F0E08D918193A5
:100370009150E1F71150812F90E01F5F0196820F9D
:10038000931F9093800080937F00612F86E690E01A
:100390000E94FB01612F6C5F6C3041F08FEF809306
:1003A000610004C08FEF809361006EE16093600094
:1003B0009AE080B3847131F49150D9F710928200A1
:1003C00010927C00DF91CF911F910895A82FB92F33
:1003D00080E090E041E050EA60956F5F58F42D9125
:1003E00038EF82279795879510F0842795273F5FF0
:1003F000C8F3F3CF0895EADF8D939D930895CF93CB
:10040000CFB7CF93DF93849BFECF849B0BC0849B9D
:1004100009C0849B07C0849B05C0849B03C0849B48
:1004200001C08BC06F93C0917E00DD27CB57DF4F9B
:100430002F9365E5849B03C02F916F91E6CF0F93B7
:100440001F934F9320E040E15F9300B3047104FBDE
:1004500027F93F9350E03BE039C0147140642F7797
:10046000012F53501EC0406810B314712F775350A2
:100470001FC0406400B32F770471D1F153500000C6
:1004800023C0406210B32F77147191F153500000D4
:1004900025C004711027515012F45D5F0000115007
:1004A00027952C3F10B3C8F61471012701502795EA
:1004B0002C3FC8F64227499300B3047110274F73AD
:1004C000115027952C3FA8F64695469510B3147108
:1004D00079F00127015027952C3F98F66B5A60F36D
:1004E000315000B3B0F600C010E41ABF002719C0A5
:1004F0003B503195C31BD04010E41ABF0881033C28
:1005000009F10B34F9F020917C001981110F1213BD
:10051000EDCF4A81441F093651F10D3211F0013EF1
:1005200029F7009383003F915F914F911F910F91A5
:100530002F916F91CAB7C6FD66CFDF91CF91CFBF24
:10054000CF91189500918300002369F310918100E9
:10055000112391F5343092F13093810000937D00A6
:1005600010917E003BE0311B30937E0027C000914C
:10057000810001300CF50AE54F7049F430916000BC
:1005800034FD1DC000936000C5E6D0E01CC0309172
:10059000700034FD14C000937000C1E7D0E013C0B8
:1005A000052710E000C0000002BB1AC0052710E0BC
:1005B000221F1DC010E021C04AE502C032ED432FCA
:1005C000C4E1D0E032E011B31461949A02B311BBDC
:1005D00054E120E865E320FF052702BB2795179526
:1005E0001C3FF0F66695B8F7B1F720FF052702BB70
:1005F000279517951C3FD0F62795179517FF0527C8
:1006000000001C3F02BBB0F629913A9519F70B7E0A
:1006100010918200110FC651D04002BB11F010930F
:100620007C0010E41ABF006111B31B7E402F4B7E8B
:1006300054E05A95F1F702BB11BB42BB74CF9C0149
:10064000E199FECF3FBB2EBBE09A8DB308959C018C
:10065000E199FECF3FBB2EBB6DBB0FB6F894E29A7B
:10066000E19A0FBE0895FC0180818076803261F4AA
:100670008181813011F0893039F480E88093640001
:10068000109263008FEF089580E008952EE088E1D6
:1006900090E00FB6F894A89581BD0FBE21BD0E94D1
:1006A00083008C9A20E040EA5FE004C0A895CA016C
:1006B0000197F1F72150D1F78C987894A8950E9472
:1006C000B300FCCF1F93209164002223D9F0162F92
:1006D000261708F4122F27E233E0412F50E0BC0127
:1006E0008091630090E00E94BF0380916300810FBE
:1006F0008093630080916400811B8093640090E08C
:10070000882309F491E0892F1F9108951F93209168
:100710006400162F261708F4122F609163002FE152
:1007200033E0412F50E070E00E94A303809163000A
:10073000810F8093630080916400811B809364002B
:10074000812F1F910895A0E0B0E0E9EAF3E00C9456
:10075000E5037C01EB018A01690109C0CE01219604
:10076000F6010995F70181937F01015010400115B1
:100770001105A1F7CDB7DEB7E8E00C940104A0E0C5
:10078000B0E0E5ECF3E00C94E503EC017B018A01B9
:10079000690109C0F70161917F01CE012196F6013F
:1007A00009950150104001151105A1F7CDB7DEB72D
:1007B000E8E00C9401042F923F924F925F926F9267
:1007C0007F928F929F92AF92BF92CF92DF92EF92E1
:1007D000FF920F931F93CF93DF93CDB7DEB7CA1B62
:1007E000DB0B0FB6F894DEBF0FBECDBF09942A888D
:1007F000398848885F846E847D848C849B84AA8435
:10080000B984C884DF80EE80FD800C811B81AA81C1
:10081000B981CE0FD11D0FB6F894DEBF0FBECDBF8C
:08082000ED010895F894FFCFEB
:020828005AFF75
:00000001FF
