:1000000048C0CEC161C060C05FC05EC05DC05CC0A2
:100010005BC05AC059C058C057C056C055C0040331
:10002000090412036F0062006400650076002E0070
:100030006100740014034C00450044004300740048
:100040006C00480049004400120110010000000843
:10005000C016DF05000101020001090222000101B2
:1000600000801909040000010300000009210101BA
:100070000001221600070581030800640600FF093D
:1000800001A101150026FF00750895010900B202C3
:1000900001C011241FBECFE5D1E0DEBFCDBF10E00F
:1000A000A0E6B0E0E2E9F7E002C005900D92A236CA
:1000B000B107D9F710E0A2E6B0E001C01D92AB395C
:1000C000B107E1F7EDD263C39BCF85B7836085BFEE
:1000D0008BB780648BBF8BE4809371008AE580933B
:1000E000700008951F93DC01162F8091700084FF2B
:1000F00007C08091710098E889278093710003C040
:100100008AE580937000912FE2E7F0E08D91819372
:1001100091501916DCF382E790E0612F2AD11C5F21
:10012000109370001F9108951F93CF93DF939091C8
:100130008100935097FDA0C020917E0080917D00AA
:100140008D3209F097C0983009F094C0CCE0D0E02F
:10015000C21BD109CB57DF4F83EC809365008AE542
:1001600080936000109263008881807621F0CE0138
:1001700074D2282F76C09A8110926E0089818823CC
:1001800021F410926F0022E066C0853019F490933C
:10019000820060C0863009F049C08B81813019F43B
:1001A00088E490E01AC0823041F48AE590E09093B0
:1001B000800080937F0022E235C08330F1F49923E0
:1001C00041F48EE190E09093800080937F0024E0E2
:1001D00029C0913041F482E290E0909380008093B6
:1001E0007F0022E11FC09230E1F484E390E090931D
:1001F000800080937F0024E115C0813241F48CE6B9
:1002000090E09093800080937F0029E00BC08232C1
:1002100041F48CE790E09093800080937F0026E18A
:1002200001C020E080E4809363001BC0883021F48B
:1002300021E084E890E011C0893019F490938400A3
:1002400009C08A3011F421E006C08B3019F48BE428
:100250008093710020E08EE690E090938000809380
:100260007F008F81882321F48E81821708F4282F44
:1002700020936100109281008091600084FF49C04A
:10028000809161008F3F09F444C0182F893008F035
:1002900018E0811B809361008091650098E88927B0
:1002A00080936500112341F120917F0030918000FF
:1002B0008091630086FF0DC0A6E6B0E080E090E08C
:1002C000F901E80FF91FE491ED9301961817C1F7B2
:1002D00008C0912FD901E6E6F0E08D91819391500D
:1002E000E1F71150812F90E01F5F0196820F931F5D
:1002F0009093800080937F0086E690E0612F39D054
:10030000612F6C5F6C3019F08FEF80936100609308
:1003100060009AE086B3857031F49150D9F710925D
:10032000820010927C0010E0992309F411E0809182
:100330006200811729F0112309F4D4D110936200CF
:10034000DF91CF911F910895A82FB92F80E090E001
:1003500041E050EA60956F5F58F42D9138EF8227A5
:100360009795879510F0842795273F5FC8F3F3CFC3
:100370000895EADF8D939D930895A6E08827992735
:10038000AA9569F00197E1F3B099FCCFB09BFECF3D
:1003900081E09927A6B3019611F0A570D9F70895C9
:1003A000CF93CFB7CF93B09BFECFB09B0BC0B09B8A
:1003B00009C0B09B07C0B09B05C0B09B03C0B09BF9
:1003C00001C0D5C00F92DF93C0917E00DD27CB57CF
:1003D000DF4F012EB09B03C0DF910F90E6CF2F932C
:1003E0000F931F934F932FEF4F6F06B300FB20F92E
:1003F0005F933F9350E03BE065C016B30126502960
:1004000050FDC89556B3012700FB25F92F7306B39D
:10041000B1F05027102710FB26F906B22230F0F079
:1004200000C016B3012700FB27F90126502906B2A8
:100430002430E8F54F77206816B30000F6CF502738
:100440004F7D206206B2102F000000C006B30026C8
:100450005029102710FB26F906B2E2CF4F7B06B3D6
:10046000206400C0DACF01265029157006B269F168
:100470004E7F2160012F16B328C0002650294D7FE2
:1004800006B22260102F29C0012650294B7F06B2E8
:100490002460012F2DC016B301265029477F286004
:1004A000000006B22EC04F7E06B3206130C0422746
:1004B00006B3499300265029102706B24FEF10FBD0
:1004C00020F9297F16B379F2157059F101265029C8
:1004D00006B2012700FB21F9237F06B371F2002643
:1004E00050293150D0F006B2102710FB22F9277E98
:1004F00016B351F201265029012700FB06B223F959
:100500002F7C49F2000006B3102710FB24F90026C7
:10051000502906B22F7939F270CF10E41ABF0027A4
:1005200019C03B503195C31BD04010E41ABF08815D
:10053000033C09F10B34F9F020917C001981110F73
:100540001213EDCF4A81441F093651F10D3211F0DB
:10055000013E29F7009383003F915F914F911F91D6
:100560000F912F91DF910F90CAB7C6FD1CCFCF918D
:10057000CFBFCF91189500918300002369F31091AC
:100580008100112379F534307AF1309381000093A2
:100590007D0010917E003BE0311B30937E0024C033
:1005A000009181000130F4F40AE54F7049F4309174
:1005B000600034FD1AC000936000C5E6D0E019C0A9
:1005C0003091700034FD11C000937000C1E7D0E09D
:1005D00010C0052710E000C021C0052710E0C89515
:1005E00008BB14C03AE501C032ED032EC0E0D0E0F4
:1005F00032E017B31560C09A08B317BB55E020E886
:100600004FEF20FF052708BB279517951C3F28F7BC
:1006100000004552B0F720FF0527279508BB179526
:100620001C3FB8F629913A9561F70A7F1091820034
:10063000110F08BBC250D04011F010937C0010E4A1
:100640001ABF016017B31A7F402F4A7F54E05A95B2
:10065000F1F708BB17BB48BB7FCFFC0180818076D8
:100660008034E1F48181813041F4828180FF02C0D5
:10067000C19A01C0C19880E00895823079F488B3AE
:1006800090E09695879581708093640084E690E071
:100690009093800080937F0081E0089580E008952A
:1006A000E199FECF1EBAE09A8DB38F3F09F081BF6A
:1006B0000CDD2EE088E190E00FB6F894A89581BD9E
:1006C0000FBE21BDB89A88EB9BE02CE931E0F9011F
:1006D0003197F1F70197D9F7B898B99A7894A89516
:1006E00023DDFDCFDF92EF92FF920F931F93CF9305
:1006F000DF9300E030E8D32EEE24FF241D2D100FF1
:1007000011BF3BDEEC0189E0C433D8070CF0102F99
:10071000D6940894E11CF11C88E0E816F10411F06D
:10072000012FECCF115011BF1F5FE12EFF24089461
:10073000E11CF11C13C021DE9C012453394037FF1A
:1007400003C0309521953F4F2C173D0714F09E01B3
:1007500001C011B781B78F5F81BFE90181B790E018
:10076000E816F90644F711BF81B7E199FECF1CBA2C
:100770001EBA8DBB0FB6F894E29AE19A0FBEDF91D4
:10078000CF911F910F91FF90EF90DF900895F89413
:02079000FFCF99
:020792005AFF0C
:00000001FF
