:100000003DC095C156C055C054C053C052C051C028
:1000100050C04FC04EC04DC04CC04BC04AC009027A
:100020001200010100801909040000000000000016
:1000300012011001FF000008C016DC0500010102DA
:10004000000116035500530042006500780061006E
:100050006D0070006C006500200363006F00640099
:10006000650061006E0064006C0069006600650058
:100070002E0063006F006D000403090411241FBEED
:10008000CFE5D1E0DEBFCDBF10E0A0E6B0E0EAE40E
:10009000F7E002C005900D92A237B107D9F720E032
:1000A000A2E7B0E001C01D92A03AB207E1F72FD35A
:1000B0004AC3A6CFCF93DF9360918600635067FD5C
:1000C000A0C080918300CCE0D0E0C81BD109C65706
:1000D000DF4F809182008D3209F082C0683009F0D4
:1000E0008EC083EC809376008AE580936000109246
:1000F00072008881807619F0CE016AD25EC09A8142
:1001000010927F008981811106C0109280002FE734
:1001100030E082E04EC0853019F4909387003DC0F6
:100120008630A9F58B81813019F480E390E004C01A
:10013000823041F48EE190E09093850080938400BA
:1001400082E121C08330F1F4911108C088E790E08A
:10015000909385008093840084E015C0913041F431
:1001600088E590E0909385008093840080E20BC046
:10017000923041F482E490E0909385008093840073
:1001800086E101C080E090E49093720016C0883050
:1001900069F0893029F4909389002FE730E004C09A
:1001A0002FE730E08A3021F080E003C029E830E01A
:1001B00081E030938500209384008F3F39F498814B
:1001C00097FD8E8190E89093720007C09F819111F6
:1001D00004C09E81981708F4892F809361000FC096
:1001E0008091720087FF0BC0CE0129D28F3F21F48E
:1001F0008EE18093600003C0811110926100109223
:1002000086008091600084FF46C0809161008F3F2E
:1002100009F441C0C82F893008F0C8E08C1B8093D6
:1002200061008091760098E8892780937600CC233E
:1002300031F120918400309185008091720086FF19
:100240000BC0F901A7E7B0E08C2F8A0F94919D9322
:1002500031968A13FBCF09C0D901E7E7F0E08C2F74
:100260008E0F9D9191938E13FCCF8C2F815090E037
:100270000196820F931F90938500809384006C2FCA
:1002800087E790E03DD0CC5FCC3019F08FEF8093C2
:100290006100C093600084E196B3967031F48150A0
:1002A000D9F71092870010928100C1E08111C0E05F
:1002B000809173008C1729F0C11101C0DDD1C0936A
:1002C0007300DF91CF91089585B7826085BF8BB7AA
:1002D00080648BBF0895A82FB92F80E090E041E0A3
:1002E00050EA609530E009C02D9182279795879557
:1002F00010F084279527305EC8F36F5FA8F3089548
:10030000EADF8D939D930895A6E088279927AA9503
:1003100069F00197E1F3B199FCCFB19BFECF81E089
:100320009927A6B3019611F0A670D9F70895CF9337
:10033000CFB7CF93C395B19BE9F7B19B0BC0B19BEE
:1003400009C0B19B07C0B19B05C0B19B03C0B19B65
:1003500001C0D3C00F92DF93C0918300DD27C65741
:10036000DF4F012EB19B03C0DF910F90E6CF2F939B
:100370000F931F934F932FEF4F6F06B301FB20F99D
:100380005F933F9350E03BE065C016B301265029D0
:1003900051FDC89556B3012701FB25F92F7306B30C
:1003A000B1F05027102711FB26F906B22230F0F0E9
:1003B00000C016B3012701FB27F90126502906B218
:1003C0002430E8F54F77206816B30000F6CF5027A9
:1003D0004F7D206206B2102F000000C006B3002639
:1003E0005029102711FB26F906B2E2CF4F7B06B346
:1003F000206400C0DACF01265029167006B269F1D8
:100400004E7F2160012F16B328C0002650294D7F52
:1004100006B22260102F29C0012650294B7F06B258
:100420002460012F2DC016B301265029477F286074
:10043000000006B22EC04F7E06B3206130C04227B6
:1004400006B3499300265029102706B24FEF11FB3F
:1004500020F9297F16B379F2167059F10126502937
:1004600006B2012701FB21F9237F06B371F20026B2
:1004700050293150D0F006B2102711FB22F9277E07
:1004800016B351F201265029012701FB06B223F9C8
:100490002F7C49F2000006B3102711FB24F9002637
:1004A000502906B22F7939F270CF10E41ABF002715
:1004B00017C03B503195C31BD04010E41ABF0881D0
:1004C000033CF9F00B34E9F0209181001981110F00
:1004D0001213EDCF093651F10D3211F0013E39F70B
:1004E000009388003F915F914F911F910F912F9141
:1004F000DF910F90CAB7C6FD1DCFCF91CFBFCF916F
:10050000189520918800222369F310918600112309
:1005100021F5343022F1309386002093820010912F
:1005200083003BE0311B3093830019C000918600AB
:1005300001309CF40AE53091600034FD11C0009355
:100540006000C6E7D0E010C0052710E000C021C061
:10055000052710E0C89508BB14C03AE501C032ED8C
:10056000032EC0E0D0E032E017B31660C19A08B3A2
:1005700017BB56E020E84FEF20FF052708BB279563
:1005800017951C3F28F700004552B0F720FF0527BC
:10059000279508BB17951C3FB8F629913A9561F746
:1005A000097F10918700110F08BBC250D04011F095
:1005B0001093810010E41ABF026017B3197F402F17
:1005C000497F54E05A95F1F708BB17BB48BB8ACF67
:1005D000FC018181823079F028F4882351F0813048
:1005E00051F505C0833079F0843029F519C0C39ADC
:1005F00022C0C39820C082E690E09093850080934B
:10060000840080E1089582818093690083818093D2
:100610006A00848180936B00858180936C000BC09D
:1006200086818093740010927500813130F080E1F2
:100630008093740002C080E008958FEF08952091A8
:100640007400A0917500FC0106C09191B0E0AE5914
:10065000BF4F9C93A32FA21738F0A093750081E0A1
:10066000A21749F080E008953A2F3F5F9E2F981B14
:10067000961758F3F2CF0895AF92BF92CF92DF92C0
:10068000EF92FF920F931F93CF93DF93C12CCFE094
:10069000D7E22CECE22E26EFF22EC11002C0D12CB4
:1006A00002C090E8D92E07E010E080E4B82E20E0E8
:1006B00030E02433394014F4DB0C01C0DB18D1BE28
:1006C00023DE9C01253389E0380724F0C9018453D7
:1006D000994003C0C701821B930B8C179D070CF038
:1006E00002C0AD2CEC01B6940150110911F7C3946E
:1006F00082E0C812D2CFA1BEDF91CF911F910F919E
:10070000FF90EF90DF90CF90BF90AF90089588E07A
:1007100087BB2EE088E190E00FB6F894A89581BDE4
:100720000FBE21BDD1DDB99A8AEFA895E9E3F0E2C9
:100730003197F1F700C000008150B9F7B99878946B
:0A074000A895B8DCFDCFF894FFCFB8
:10074A005AFF48656C6C6F2C2055534221000000FB
:02075A0000009D
:00000001FF
